:020000040800F2
:1000000000070020F1020008A14A0008594A000830
:10001000814A0008594A0008794A0008F30200089A
:10002000F3020008F3020008F3020008B980000898
:10003000F3020008F3020008F3020008F3020008CC
:10004000F3020008F3020008F3020008F3020008BC
:10005000F3020008F3020008F3020008F3020008AC
:10006000F3020008F3020008F30200087D81000893
:10007000A5810008D1810008FD81000829820008BF
:10008000518200087D820008F30200080949000837
:10009000F302000819490008F3020008F3020008FF
:1000A000F3020008F3020008F3020008F30200085C
:1000B000F3020008F3020008F3020008F30200084C
:1000C000F3020008F3020008F3020008F30200083C
:1000D000F3020008F3020008F3020008F30200082C
:1000E000F3020008F3020008F3020008F30200081C
:1000F000F3020008F3020008F3020008A9820008D6
:10010000F3020008F302000801BD0008F302000832
:10011000F3020008F3020008F3020008F3020008EB
:10012000D5820008FD820008298300085583000855
:1001300081830008F3020008F3020008F3020008BC
:10014000F3020008F3020008F3020008F3020008BB
:10015000A9830008D583000801840008F302000881
:10016000F3020008F3020008F3020008F30200089B
:10017000F3020008CDB90008F3020008F3020008FA
:10018000F3020008F3020008F3020008F30200087B
:10019000F3020008F3020008F3020008F30200086B
:1001A000F3020008F3020008F3020008F30200085B
:1001B000F3020008F3020008F3020008F30200084B
:1001C000F3020008F3020008F3020008F30200083B
:1001D000F3020008B9B90008F3020008F3020008AE
:1001E000F3020008F3020008F3020008F30200081B
:1001F000F3020008F3020008F3020008F30200080B
:10020000F3020008F3020008F3020008F3020008FA
:10021000F3020008F3020008F3020008F3020008EA
:10022000F3020008F3020008F3020008F3020008DA
:10023000EDBC0008F3020008F3020008F302000816
:10024000F3020008F3020008F3020008F3020008BA
:10025000F3020008F3020008F3020008F3020008AA
:10026000F3020008F3020008F3020008F30200089A
:10027000F3020008F3020008F3020008F30200088A
:10028000F3020008F3020008F3020008F30200087A
:10029000F3020008F3020008F3020008F30200086A
:1002A000F3020008F3020008F3020008F30200085A
:1002B000F3020008F3020008F3020008F30200084A
:1002C000F3020008F3020008F3020008F30200083A
:1002D000F3020008F3020008F3020008F30200082A
:0402E000612300088E
:1002F00002E000F000F8FEE772B6374880F30888A5
:10030000364880F3098836483649086040F20000D4
:10031000CCF200004EF63471CEF200010860BFF35B
:100320004F8FBFF36F8F40F20000C0F2F0004EF627
:100330008851CEF200010860BFF34F8FBFF36F8F7B
:100340004FF00000E1EE100A4EF63C71CEF20001D3
:100350000860062080F31488BFF36F8F0AF0AEFDAB
:1003600009F0E0FE4FF055301F491B4A91423CBF57
:1003700041F8040BFAE71D49184A91423CBF41F885
:10038000040BFAE71A491B4A1B4B9A423EBF51F82D
:10039000040B42F8040BF8E700201849184A914270
:1003A0003CBF41F8040BFAE70AF0C6FD09F03CFF38
:1003B000144C154DAC4203DA54F8041B8847F9E796
:1003C00000F060FE114C124DAC4203DA54F8041BED
:1003D0008847F9E70AF0AEBD00070020002300209F
:1003E0000000000808ED00E00001002000070020E8
:1003F000D8CF0008002300206C23002070230020A9
:10040000D8840020E0020008E4020008E4020008AA
:10041000E40200082DE9F04F2DED108AC1F80CD050
:10042000D0F80CD0BDEC108ABDE8F08F002383F328
:1004300011882846A047002009F058FCFEE709F083
:1004400099FB00DFFEE7000053B94AB9002908BF55
:1004500000281CBF4FF0FF314FF0FF3000F06AB9A9
:10046000ADF1080C6DE904CE00F006F8DDF804E00B
:10047000DDE9022304B070472DE9F047089D0E46E0
:1004800004460F46002B4AD194468C45B2FA82F2BC
:1004900060D942B1C2F12003974020FA03F30CFA6D
:1004A00002FC1F4394404FEA1C4E1FFA8CF6B7FB28
:1004B000FEF1230C0EFB117743EA074301FB06F024
:1004C00098420AD91CEB030301F1FF3780F0158134
:1004D000984240F21281023963441B1AA4B2B3FB62
:1004E000FEF00EFB103344EA034400FB06F6A6427E
:1004F0000AD91CEB040400F1FF3380F00081A6420E
:1005000040F2FD806444023840EA0140A41B00210F
:100510001DB1D4400023C5E90043BDE8F0878B42FC
:1005200005D90DB1C5E9000100210846F5E7B3FA88
:1005300083F1002946D1B34202D3824200F2F58012
:10054000841A66EB030201201746002DE5D0C5E9A9
:100550000047E2E7002A40F09380A1EB0C034FEA4A
:100560001C471FFA8CFE0121B3FBF7F607FB163080
:10057000230C43EA00430EFB06F0984208D91CEB1B
:10058000030306F1FF3802D2984200F2D0804646BB
:100590001B1AA4B2B3FBF7F007FB103344EA034481
:1005A0000EFB00FEA64508D91CEB040400F1FF3346
:1005B00002D2A64500F2B6801846A4EB0E0440EA2B
:1005C0000640A5E7C1F120078B4022FA07FC4CEA60
:1005D000030C06FA01FE20FA07F426FA07F344EAB0
:1005E0000E0400FA01F84FEA1C404FEA1449B3FB2D
:1005F000F0FE1FFA8CF600FB1E3349EA03430EFBA4
:1006000006F9994502FA01F20BD91CEB03030EF12E
:10061000FF3A80F08580994540F28280AEF1020E6B
:100620006344A3EB0909A4B2B9FBF0F300FB1399EF
:1006300044EA094403FB06F6A64208D91CEB04046D
:1006400003F1FF3068D2A64266D9023B644443EA14
:100650000E40A41BA0FB02E6B4427346B14652D33F
:100660004FD05DB1B8EB030264EB090404FA07F75D
:1006700022FA01F31F43CC40C5E9007400214CE786
:10068000C2F1200120FA01F30CFA02FC26FA01F172
:10069000964033434FEA1C471FFA8CFEB1FBF7F03C
:1006A00007FB1016190C41EA064100FB0EF68E42BC
:1006B00004FA02F408D91CEB010100F1FF382DD235
:1006C0008E422BD902386144891B9BB2B1FBF7F6ED
:1006D00007FB161143EA014306FB0EF1994208D9C4
:1006E0001CEB030306F1FF3814D2994212D9023EE3
:1006F00063445B1A46EA004136E73946EDE61846A0
:1007000002E7F045ADD2BEEB020366EB0C06013802
:10071000B146A6E74646ECE7034698E74046D3E7EE
:10072000D6467EE76444023847E708460DE7023EB6
:1007300063442DE7704700BF11F0FF01034600F04E
:10074000030239D08ABB026810B501EB012E0EEB13
:100750000E4E8EEA0204A2F1013323EA0203A4F151
:10076000013222EA0402134313F0803F0FD150F804
:10077000044F84EA0E0CA4F10133ACF1013223EAF8
:10078000040322EA0C02134313F0803FEFD00378F6
:1007900023B936E010F8013F002B32D09942F9D14D
:1007A00010BD8A4228D09A0729D01A7818460133FA
:1007B000002AF6D110467047CAB90268A2F1013387
:1007C00023EA020313F0803F08D150F8042FA2F16E
:1007D000013323EA020313F0803FF6D003785BB1C4
:1007E00010F8013F002BFBD17047990705D0184640
:1007F00013F8012B002AF8D170471846DDE7184698
:10080000A1E7184610BD00BF80EA0102844612F03D
:10081000030F4FD111F0030F32D14DF8044D11F0F9
:10082000040F51F8043B0BD0A3F101329A4312F0AC
:10083000803F04BF4CF8043B51F8043B16D100BF85
:1008400051F8044BA3F101329A4312F0803FA4F116
:1008500001320BD14CF8043BA24312F0803F04BF9D
:1008600051F8043B4CF8044BEAD023460CF8013B0A
:1008700013F0FF0F4FEA3323F8D15DF8044B7047B4
:1008800011F0010F06D011F8012B0CF8012B002AF2
:1008900008BF704711F0020FBFD031F8022B12F0E1
:1008A000FF0F16BF2CF8022B8CF8002012F47F4F9C
:1008B000B3D1704711F8012B0CF8012B002AF9D1A4
:1008C000704700BF88420ED98B1883420BD900EBCA
:1008D000020C002A6ED0624613F801CD02F801CD59
:1008E0009942F9D170470F2A0FD8034602F1FF3C15
:1008F000002A5FD00CF1010C013B8C4411F8012B54
:1009000003F8012F6145F9D1704740EA01039B07C5
:1009100051D1A2F1100370B501F1200C23F00F05A5
:1009200001F1100E00F11004AC441B095EF8105CDC
:1009300044F8105C5EF80C5C44F80C5C5EF8085CF3
:1009400044F8085C5EF8045C44F8045C0EF1100E98
:10095000E64504F11004E9D1013312F00C0F01EB6C
:10096000031102F00F0400EB031328D0043C24F021
:1009700003064FEA940C1E441C1F8E465EF8045B6F
:1009800044F8045FB442F9D10CF1010402F003020F
:1009900003EB840301EB840102F1FF3C4AB10CF14B
:1009A000010C013B8C4411F8012B03F8012F614528
:1009B000F9D170BD704702F1FF3C03469AE7224629
:1009C000EAE700BF10B5054C34B113460A460146AC
:1009D0000220AFF3008010BD204610BD00000000D3
:1009E00040EA01039B0710B501D1032A17D88446BA
:1009F00001F1FF3E07E01EF8011F03F8011B541E22
:100A000029B19C4622466346002AF4D110BD944485
:100A1000002CFBD003F8011B6345FBD110BD8E46B3
:100A20008446DEF80040A4F1013323EA040313F006
:100A3000803F71460EF1040EDAD1043A032A4CF8D5
:100A4000044BEED87146D3E701292DE9F0415BD97B
:100A50004FF00108C64600244FF0FF35434608E03A
:100A6000A3EB05081C464FF0010E04EB0E03994260
:100A700010D900EB050CC75C1CF80E60B742EFD331
:100A800032D04FF001082546C646444404EB0E031D
:100A90009942EED80127C2F80080BE4600244FF0EC
:100AA000FF363B4607E09F1B1C464FF0010E04EB50
:100AB0000E03994210D900EB060C10F803801CF8C5
:100AC0000EC0E045EFD817D001272646BE463C446D
:100AD00004EB0E039942EED80136681C864201D31E
:100AE00017603046BDE8F081C6450ABF74440EF178
:100AF000010E4FF0010EB8E7BE450ABF74440EF177
:100B0000010E4FF0010ED2E701270026E8E700BFF3
:100B10002DE9F04F164685B003AA0D460746194643
:100B200030461C46FFF790FFDDF80CA002468046D9
:100B300006EB0A01304600F027FA2A1B002852D1A2
:100B400001468446A4EB0A0BC8F10109CDF804A0C4
:100B50008845434638BF0B469C4219D95D1E03EBBE
:100B60000C003544384402E001339C4210D010F8A8
:100B700001EB15F801AFF245F6D09C4208D9CC4400
:100B80009C4400219445E3D9002005B0BDE8F08FD6
:100B9000884508F1FF3367D908EB0C00384406EBB1
:100BA0000805CDF8008002E08B4212D0534615F8BC
:100BB000018D10F801EDF04503F1FF3AF4D0DDF8B6
:100BC000008001330131994208D8019B59469C4469
:100BD000D8E701319942DDF80080F6D907EB0C0027
:100BE00005B0BDE8F08FA4EB0801414538BF414690
:100BF000444501F101014FF0000C31D908F1FF3EED
:100C0000C8F101090CEB080006EB0E053844434619
:100C100002E001339C4223D010F801AB15F801BF6C
:100C2000D345F6D09C421BD9CC449C449445ABD8C8
:100C30004445E7D806EB08090CEB08053D44484657
:100C400001E0B342CAD010F801AD15F801EDF2454C
:100C50000346F6D08C44944596D84445CED8EBE76D
:100C6000B8F1000FE6D1B9E74346ABE72DE9F04F05
:100C70001546ADF21C4D06468A4605AA1946284679
:100C80000093FFF7E1FE009B80460DF2144142F80D
:100C9000043F8A42FBD15C1E002B00F0CE80691E0F
:100CA00004EB050C06AF11F8010F5A1A013A2A4459
:100CB000614547F82020F6D1DDF814B0009305EB2C
:100CC0000B014246284600F05FF9009B0146AAEB63
:100CD000030A00285CD1A3EB0B03C8F101020093C7
:100CE000CDE901B20346A9460AE021B1019991423A
:100CF000009988BF0A46134453454FF0000142D87B
:100D000006EB030C1CF8042057F82220002AECD133
:100D10008845424638BF0A46A24212D2551ED01814
:100D20004D44304402E00132A2420AD010F801EBF7
:100D300015F801BFF345F6D0A24202D202990B4446
:100D4000D9E7884508F1FF327BD908EB030030442E
:100D500009EB0805CDF80C8002E08A426AD05A46B9
:100D600015F8018D10F801EDF04502F1FF3BF4D0CC
:100D7000DDF80C8001320131914260D8019A00996E
:100D800013445345BCD900200DF21C4DBDE8F08F33
:100D9000A3EB080343454FF0000C38BF434606EB76
:100DA0000C0001330193035D57F8233008F1FF393C
:100DB000C8F1010B4BB19C44D445E4D806EB0C00C0
:100DC000035D57F82330002BF5D1A04517D208EB6F
:100DD0000C02324405EB09014346CDF800C002E0A5
:100DE0000133A34223D012F801CB11F801EFE645FD
:100DF000F6D0DDF800C0A34238BFDC44DBD3B8F145
:100E0000000FC1D008EB0C01314405EB0802CDF80E
:100E100000C001E0AB42B7D012F801ED11F801CDEE
:100E2000E6451346F6D0DDE900C39C44C4E7DDF88F
:100E300000C0E4E7DDF80C809DE706AF3CE76046C4
:100E4000A2E7424697E700BF2DE9F0470446C0B04D
:100E5000002B6AD0012B0D4690461F4600F086807D
:100E60008B425ED8CD1A022B00EB050661D0B3F59C
:100E7000807F00F282804FF48072002168465D1E00
:100E800002F090F998F80010012240460B4610F845
:100E9000011FA1EBC303DBB20DF803200132954221
:100EA000F4D808EB07034FF0000A13F8022C18F8E7
:100EB0000530A3EBC203DBB21DF803900DF803501D
:100EC000A5EB0909B44201D92BE063B92C44A64231
:100ED00014F8013C94F800C0ACEBC30C5FFA8CFC36
:100EE0001DF80C30F1D29D42A4EB0304EAD80F2D7B
:100EF00007D9042208EB0A0104EB0A0000F044F8C9
:100F000060B92A464146204600F03EF868B1BAF181
:100F1000030F8CBFAAF1040AA7F1050A4C44B4429E
:100F2000D4D9002040B0BDE8F087204640B0BDE8ED
:100F3000F08713785078217840EA0340234613F86D
:100F4000012F9E4242EA01421BD39042EDD001366E
:100F500001E0904208D013F8011F9E4241EA02428C
:100F6000F7D18242DDD13346581EDBE711782A469D
:100F700040B0BDE8F04700F035B840B0BDE8F047FC
:100F800074E61E46EDE700BF032A30B415D941EAE6
:100F90000004A40784460B4604D0541E0FE0043A14
:100FA000032A08D91946604653F8044B5CF8045BE1
:100FB000A542F4D0F1E760461946541E7AB1431EAB
:100FC0000139021901E09A4209D013F8010F11F812
:100FD00001CF6045F7D0A0EB0C0030BC704700207B
:100FE00030BC704701F0FF01102A2BDB10F0070F17
:100FF00008D010F8013B013A8B422DD010F0070FBA
:1010000042B3F6D1F0B441EA012141EA014122F0B4
:1010100007047FF000070023F0E80256083C85EA49
:10102000010586EA010685FA47F5A3FA87F586FAEF
:1010300047F6A5FA87F68EB9EED1F0BC01F0FF01B4
:1010400002F0070232B110F8013B013A83EA0103D2
:1010500013B1F8D10020704701387047002D06BF4A
:1010600035460338073815F0010F07D1013015F464
:10107000807F02BF013015F4C03F0130F0BC013861
:10108000704700BFF8B501F089FF02F00DF909F0D3
:10109000BFFD074609F004FF0546C0BB214B9F4238
:1010A00035D001339F4235D027F0FF021E4B9A42C4
:1010B00033D12E4642F21074F8B200F0ADFF00F0CA
:1010C000B1FF08B10024264602F0B4FB20B1002491
:1010D000032000F07BF8264635B1144B9F4203D025
:1010E000002409F0D5FE2646002009F09BFD0EB134
:1010F00000F082F802F0ACF800F0C8FF01F0B4FA9A
:1011000008B100F079F8204600F034F9F9E72E46EE
:101110000024D4E704460126D1E7064641F288348C
:10112000CDE700BF010007B0000008B0263A09B0C3
:1011300008B501F007FFA0F120035842584108BD4F
:1011400007B5042101900DEB010001F017FF03B07A
:101150005DF804FB38B5302383F311881748036822
:101160000BB108F0A7FE0023154A4FF47A7113481B
:1011700008F096FE002383F31188124C236813B104
:101180002368013B2360636813B16368013B6360BC
:101190000D4D2B7833B963687BB9022001F0C0FF95
:1011A000322363602B78032B07D163682BB90220AD
:1011B00001F0B6FF4FF47A73636038BD80240020DD
:1011C00055110008742400207C240020084B18705E
:1011D00003280CD8DFE800F008050208022001F01F
:1011E00091BF022001F07EBF024B00225A6070477F
:1011F0007C24002074240020F8B502F01BFB30B1E1
:10120000544B03221A700022534B5A60F8BD534BC3
:10121000534A1C4619680131F8D004339342F9D17E
:101220006268504B9A42F1D94F4B9B6803F10063BF
:1012300003F500339A42E9D209F0FEFD09F010FEF1
:10124000002001F0C5FE0220FFF7C0FF474B002140
:10125000D3F8E820C3F8E810D3F81021C3F8101130
:10126000D3F81021D3F8EC20C3F8EC10D3F81421F4
:10127000C3F81411D3F81421D3F8F020C3F8F010F8
:10128000D3F81821C3F81811D3F81821D3F8802007
:1012900042F00062C3F88020D3F8802022F0006280
:1012A000C3F88020D3F88020D3F8802042F0007269
:1012B000C3F88020D3F8802022F00072C3F8802089
:1012C000D3F8803072B64FF0E023C3F8084DD4E96C
:1012D0000004BFF34F8FBFF36F8F254AC2F884100D
:1012E000BFF34F8F536923F480335361BFF34F8FA4
:1012F000D2F8803043F6E076C3F3C905C3F34E332A
:101300005B0103EA060C29464CEA81770139C2F8F1
:101310007472F9D2203B13F1200FF2D1BFF34F8F3B
:10132000BFF36F8FBFF34F8FBFF36F8F536923F4FA
:10133000003353610023C2F85032BFF34F8FBFF325
:101340006F8F302383F31188854680F30888204708
:101350005CE700BF7C240020742400200000020809
:1013600020000208FFFF010800230020004402586B
:1013700000ED00E02DE9F04F95B0DFF8DC8220228F
:10138000FF21019004A8D8F8086001F00BFFA94ADA
:101390001378A3B90121A84811700360302383F3A7
:1013A000118803680BB108F085FD0023A34A4FF4B0
:1013B0007A71A14808F074FD002383F31188019B22
:1013C00013B19F4B019A1A609E4A1378032B03D0E6
:1013D000002313709A4A53604FF0000A019DD346D0
:1013E0005446D146012001F08DFE25B1944B1B6877
:1013F000002B00F02582002001F0A4FD071E49DB30
:10140000012001F06FFEA7F121031F2BEAD801A2F2
:1014100052F823F09B140008B71400084115000887
:10142000E5130008E5130008E5130008CD150008D2
:10143000B3170008A31600080117000827170008B3
:101440004D170008E51300085F1700088317000810
:10145000FB17000821150008E513000847180008CD
:10146000A714000821150008E5130008011700085B
:10147000E5130008E5130008E5130008E51300086C
:10148000E5130008E5130008E5130008E51300085C
:101490004115000800F042FEA7E70220FFF748FED2
:1014A000002840F0FC80019B02216748BAF1000F40
:1014B00008BF1D463EE04FF47A7001F043FD071E61
:1014C000F1DB0220FFF734FE0028ECD0013F052FAE
:1014D00000F2E381DFE807F003070A0D1031052071
:1014E000FFF72EFE14E0D8F80000F9E7D8F8040062
:1014F000F6E7D8F80800F3E74FF01C09484609F171
:10150000040901F067FDFFF71BFEB9F12C0FF5D1BF
:1015100001234FF00009BB404BEA03035FFA83FB52
:1015200001F08CFE24B10BF00B030B2B08BF002540
:101530000221464801F022FD54E7D8F80C00CFE71D
:10154000002CB0D00BF00B030B2B61D10220FFF766
:10155000EFFD044600285BD001204FF0000A01F0A7
:1015600037FD0220FFF732FE1FFA8AF31846029376
:1015700001F03EFD029B054688B9324B01222E4602
:1015800002201A7001F0AEFDD8F80830B34216D828
:1015900000262C4BA2461E70294B5E60C0E7A7F1C7
:1015A000400218460AF1010A5142514101F038FD4A
:1015B00005460028D8D1A24602212548BAE7304680
:1015C00001F008FD0130F6D10436DDE7002C3FF4D0
:1015D0006AAF0BF00B030B2B1AD10220FFF7F6FDBD
:1015E000322001F0AFFC071E12DB17F003030FD10E
:1015F000BA19D8F808108A420AD8B7F5807F07D8F8
:10160000144A9F4206DCC820FFF792FD044628BB1F
:10161000012448E74FF47A70CDE9023201F092FCE0
:101620000028FFF640AF039A029B02F8010B01333A
:10163000E7E700BF70240020802400205511000837
:10164000742400207C2400207CC6000880C600088A
:1016500078C6000870230020002300201F2E11D818
:10166000C6F1200204AB26F003008D49BA421844AB
:1016700028BF3A46029201F075FD029AFF21884880
:1016800001F090FDBB10C7F38702854930460293F5
:1016900001F090FD00288FD0029B06EB83060446E4
:1016A0003EE70220FFF744FD00283FF4FCAE01F0C6
:1016B000C9FC00283FF4F7AE00273B4612E01F2F7D
:1016C00018D8049A013215D027F0030250326A4428
:1016D00052F8400C0C90042218460CA902F094F821
:1016E00004370346D8F80820BA42E8D81846FFF76E
:1016F00027FD15E73846029301F06CFC029BE9E7F1
:10170000002364210CA80C9301F030FC00287FF426
:10171000CAAE0220FFF70CFD00283FF4C4AE0C98BF
:1017200001F086FCE3E7002364210CA80C9301F090
:101730001DFC00287FF4B7AE0220FFF7F9FC00285B
:101740003FF4B1AE0C9801F075FCD0E70220FFF732
:10175000EFFC00283FF4A7AE01F084FCC7E70220AD
:10176000FFF7E6FC00283FF49EAE0CA9142001F020
:101770007FFC0746FFF7E4FC39460CA801F0FEFBAE
:10178000CEE60220FFF7D4FC00283FF48CAE454B98
:101790000CAF03F1100C1868083353F8041C3A46D8
:1017A000634503C21746F6D11020FFF7C9FC10218C
:1017B000E3E7322001F0C6FB071EFFF674AEBB075D
:1017C0007FF471AE07EB0903D8F8082093423FF687
:1017D0006AAE0220FFF7ACFC00283FF464AE27F0AD
:1017E00003074F44B9453FF49BAE484609F104094D
:1017F00001F0F0FBFFF7A4FCF4E74FF47A70FFF779
:1018000097FC00283FF44FAE01F01CFC00283FF489
:10181000D3AE049B01330CD0082204A9002001F0B0
:10182000C9FC00283FF4C8AE2022FF2104A801F023
:10183000B9FC1D48022101F0A1FB1C4808F05CFA2C
:1018400015B0BDE8F08F002C3FF42DAE0BF00B036C
:101850000B2B7FF428AE002364210CA80C9301F01D
:1018600085FB074600287FF41EAE0220FFF760FCD0
:10187000029000283FF417AE02210B4801F07EFBD6
:1018800041F2883008F038FA0C9801F00BFD3D4623
:1018900001F0D4FC029B1C46A4E54FF0000902E6CF
:1018A00070230020E4C4000880C60008A086010060
:1018B000094A49F26900136899B21B0C00FB013315
:1018C00044F250611360054B186882B2000C01FBB2
:1018D0000200186080B270471423002010230020FB
:1018E0007047000070B50C4615461E4603F038FCE4
:1018F00050B9022E10D1012D0ED112A3D3E900232D
:101900000120C4E9002307E0282D10D005D8012DBF
:1019100009D0052D0FD0002070BD302DFBD10BA3B9
:10192000D3E90023ECE70BA3D3E90023E8E70BA3FB
:10193000D3E90023E4E70BA3D3E90023E0E700BFEA
:10194000AFF30080401DA12026812A0B78F6339F3B
:1019500093CACD8D9E6AC421818A46EE2641727259
:10196000DF25D7B7F017304A39059E5600211022DF
:1019700010B5044601F016FC034B03CB20606160F8
:101980001868A06010BD00BF00E8F11FF0B5ADF50C
:10199000517D4FF4C47207460D466EAC00212046BF
:1019A00001F000FC03F084F84FF47A72254BB0FB91
:1019B000F2F0186093E80700022384E807000DF5B1
:1019C000ED702382FFF7D2FF48F205031E4907A8F6
:1019D0002384FEF719FF1E230DF2EB220DF1340CC8
:1019E00084F8323107AB1E46083203CE664542F812
:1019F000080C42F8041C3346F5D1306810602046CC
:101A0000B3880FAE93803146012201F0E5FC00233C
:101A100080B20393CDE90460AB7E3846029305F1B2
:101A20001903019301230093E97E04A3D3E9002362
:101A300003F038FC0DF5517DF0BD00BF9E6AC42156
:101A4000818A46EEF0290020F5C400082DE9F04116
:101A50002C4CDAB080460D46237A5BBB27A928467A
:101A600001F0DEFD0746002842D19DF89D60C82E9A
:101A70003ED801464FF4A662204601F093FB4FF496
:101A8000807332460DF19E01C4F8F8314FF40073B3
:101A900004F109002644C4F80C334FF44073C4F831
:101AA000203401F05FFB9DF89C30777223720BB9F4
:101AB000EB7E237206AC8122002127A801F072FB85
:101AC0000122214627A801F0F1FD002380B20393F3
:101AD000CDE90440AB7E4046029305F11903019322
:101AE00028230093E97E05A3D3E9002303F0DAFB62
:101AF0005AB0BDE8F08100BFAFF30080264172729A
:101B0000DF25D7B7A0240020F0B54FF48A73244E08
:101B1000F1B0002403FB006596F8D830D0222146AE
:101B20003CA885F8DC3085F8E84001F03BFB06F185
:101B3000090006AF01F034FBD5F8E430C2B206F17B
:101B400009018DF8F0000DF1F100CDE93A3401F012
:101B500009FB394601223AA801F0DCFD082380B2D6
:101B6000CDE9047001270F48CDE9023706F1D8030B
:101B7000019330230093317A07A3D3E9002303F0C4
:101B800091FBA04206DD02F093FFC5F8E000384665
:101B900071B0F0BD2046FBE778F6339F93CACD8D38
:101BA000A0240020D44E00202DE9F0411D4D86B028
:101BB0001D4E1E4F284603F0A1FB034658B30024D8
:101BC000DFF86C80ADF814400294CDE903441A7B31
:101BD0008DF8142003AA5868996803C21B6843F063
:101BE0000043029302F066FF82190094384641F1E7
:101BF000000302A902F024F8A04205DD284603F004
:101C000081FB88F80040D5E798F80030072B05D80D
:101C1000013388F8003006B0BDE8F081014803F0D8
:101C200071FBF8E7D44E002040420F00002A00204C
:101C30009D24002010B50446002101F0F1F9601C3C
:101C40000B4C80B2A4F82C0501F0D2F970B1B4F8B5
:101C50002C0501F0DDF9014640B9B4F82C0501F07E
:101C6000DFF9B4F82C05013080B2EBE710BD00BFFE
:101C7000A0240020F0B589B005460C4616460D4953
:101C80004FF4237207A81F4601F04CFEBDF83C300C
:101C90002A46009604930E9B074803931823CDE928
:101CA0000173234603F0A0FA07A801F045FE09B02E
:101CB000F0BD00BFD0290020D44E00200A4B0B4AB3
:101CC00010B51A6003F5805393F858203AB95C6D4B
:101CD0002CB1204601F038FE204601F075FF044883
:101CE000BDE8104001F030BE002A0020D4C6000834
:101CF000403A00202DE9F04F8FB005460C4600AF6A
:101D000003F02EFA00284AD1237E022B1AD1E38A4F
:101D1000012B17D102F0CCFE0646FFF7C9FD4FF4A8
:101D2000C87306F51676DFF8E882B0FBF3F202FB23
:101D3000130316FA83F3C8F80030E37E33B9AE4BD1
:101D400000221A703C37BD46BDE8F08F07F1240130
:101D5000204601F019FC0028F4D107F11400FFF728
:101D600005FE97F8264007F1140107F127002246E7
:101D7000FFF70AF90028E2D10F2C08D89E4B1C70FF
:101D8000D8F80030A3F51673C8F80030DAE797F8F2
:101D900024100029D6D0284603F0DAF9D2E7E38AE6
:101DA000282B38D010D8012B30D0052BCAD1BFF347
:101DB0004F8F9249924BCA6802F4E0621343CB60A2
:101DC000BFF34F8F00BFFDE7302BBBD1DFF844B22C
:101DD000E17E9BF808209142B4D1607E59460022F2
:101DE00091F8DC50854200F0B480013201F58A712F
:101DF000042AF5D1DBF8002040F6B831FA328A42E5
:101E000094BFCBF80020CBF800109BE72146284672
:101E1000FFF7BCFD96E721462846FFF717FE91E73E
:101E2000B2F8EC5000217B60EA1C930822F0030218
:101E30000732BB60D208A8EBC2039D46BB68EA46E6
:101E40009A00504601F0AEF97B682A46504603F1ED
:101E5000EE01594401F086F914B9012001F0B8F8F7
:101E60009BF8D20001F0C4F8044638B98BF808009A
:101E700001F0E8F8204601F0ABF8B4E0DBF8D4203C
:101E80003AB99BF8D200BBF82C25824201D8FFF763
:101E9000D1FEDBF8D4202A44944208D29BF8D20029
:101EA000BBF82C250130824201D8FFF7C3FE3A7AF5
:101EB0005146DBF8040001F07DF908B9C5467BE026
:101EC000DBF804209BF8D2002A44CBF80420DBF88E
:101ED000D42005EB020ACBF8D4A001F089F88245A2
:101EE00009D39BF8D22001328BF8D220DBF8D42022
:101EF000121BCBF8D420FF2D10D800248BF80840FB
:101F000001F0A0F8204601F063F801F093FC3D4B8E
:101F1000188108B9FFF770F9C54613E7FB689BF80D
:101F2000D90009FB03B2D2F8E41082F8E86001F5A9
:101F30008061C2F8E060C2F8E410FFF7E5FDFFF74A
:101F400033FE9BF8D920013202F003028BF8D9202E
:101F5000B4E74FF48A79204609FB02F505F1EA015E
:101F6000594401F00BFC064600287FF4EBAE012239
:101F70005D4485F8E82002F09BFDD5F8E020DBED1C
:101F8000007A801A40F6B832B8EE677ADFED1E6A42
:101F9000192838BF1920904228BF104607EE900A32
:101FA000F8EEE77A67EEA67ADFED186AE7EE267AB2
:101FB000FCEEE77ACBED007A9BF8D930DBF8040031
:101FC000FB6009FB03F30BEB030292F8E81059B135
:101FD000D2F8E440E84684423FF422AF002182F880
:101FE000E810C2F8E010C546DBF80430054A9B0A49
:101FF00001331381A6E600BFE829002000ED00E0D0
:102000000400FA05F0290020CDCCCC3D6666663F81
:10201000EC290020A0240020014B1870704700BF5D
:10202000D03E002038B54FF00054144B22689A423D
:1020300022D1607DF8B1124B0025C92211491870D8
:102040001148237D0930C0F8DB5000F8013C4FF403
:102050008073C0F8EF314FF40073C0F803334FF4CE
:102060004073C0F8173401F07DF8E022294620467D
:1020700001F098F8012038BD0020FCE79AAD44C576
:10208000D03E002016000020A024002037B51A4DB5
:1020900001F0D0FB022300221849288118486B71F7
:1020A00002F036F8002317494FF480521648019386
:1020B000164B0093164B03F023F8164B197811B109
:1020C000114803F045F802F0F3FC0446FFF7F0FB7B
:1020D0004FF4C87304F51674B0FBF3F202FB13005F
:1020E0000D4B14FA80F0186008F0DAFE08B10F23E7
:1020F0002B8103B030BD00BFF029002040420F000B
:10210000002A0020D43E0020D44E0020E51800080C
:10211000F51C0008D03E0020EC2900202DE9F04FEE
:10212000824C2DED028B0FF2EC19D9E900898FB0AA
:10213000FFF73AFD07AD00237D4FDFF814A20693A9
:10214000ADF8243007936B609FED748B4FF0000B5C
:1021500001260DF10D0203A95B4638468DF80C608F
:102160008DF80DB08DED008B02F074FB9DF80C30F6
:10217000002B40F09A80204602F0F2FF054600282E
:102180003FD16C4F02F094FC3B68984239D302F087
:102190008FFC8246FFF78CFB4FF4C8730AF5167A62
:1021A000B0FBF3F202FB13001AFA80F038600AA8C1
:1021B000614F97F800B0BBFA8BF3CBF1100A5B09C3
:1021C0005FFA8AFA8DF81830FFF7D0FBBAF1060FE4
:1021D0000AAB0DF1190028BF4FF0060A03EB0B0103
:1021E000524600F0BFFF0AF1010206ABD2B20093E3
:1021F00001923246514B4BA1D1E90001FFF73AFD64
:102200003D7002F055FC4E4A4E4D1368C31AB3F5AB
:102210007A7F29D3106002F04DFC02460B4620461F
:1022200003F07AF8204602F09BFFE8B12B7A0AAF60
:10223000454E002B0CBF02230323737102F038FCC0
:102240004FF47A7301223946B0FBF3F03060304628
:1022500001F072F93D4B80B240F255124946CDE98A
:1022600000704046FFF706FD2B7A93B102F020FC88
:10227000002607464FF48A7A95F8D900304400F0DA
:1022800003000AFB005393F8E82092B30136042EB2
:10229000F2D1C82007F030FD2B7A002B7FF448AF35
:1022A0000FB0BDEC028BBDE8F08FDAF81430594660
:1022B00010220AA883F02003CAF8143000F072FF3D
:1022C0000DF10E0304AA06A9384601F0B3FD0BABCD
:1022D00095E8030083E803009DF824300AA920460E
:1022E0008DF83430069B0A93DDE9042303F0E4F90A
:1022F0002CE7D3F8E02042B12B68BA1AFA2B38BF8A
:10230000FA230533B2EB430FC0D3FFF7FDFB0028E0
:10231000BCD1BEE7F1C6A7C1D068080F000000001D
:1023200000000000401DA12026812A0BD44E002071
:10233000002A0020EC290020E8290020FC290020A8
:1023400098240020A0240020F02900209C240020B4
:102350000010025810B5044601F036FC204610BDAE
:1023600038B50A4D0A4C0B4801F00CFE2A460A49C2
:1023700000200AF0B1F8204602F0F0FA2A46204682
:102380000649BDE838400AF0A7B800BF94610020B4
:10239000D0290020002A0020BD1C0008E1180008F8
:1023A0007047000070470000704700002DE9F041C1
:1023B00000F58037044616463B7C5BB9C068103098
:1023C000204400F0CFFEE5683544B5F5004FE560E8
:1023D00002D816B1BDE8F081DEB905F07F0605F13F
:1023E00010000021C6F180062044F6B232462E4489
:1023F00000F0D8FEA06804F11008324600F1006039
:10240000414600F5003008F047F930B901233B742C
:10241000E0E74FF400463546ECE7A36805F110010C
:10242000E268404633442144521BA360E26000F05E
:1024300099FE0220BDE8F04100F072BE183000F0B5
:10244000DFBC000010B5044601F0BEFB204610BD05
:1024500010B5044601F0B8FB204610BDC0B2A0F193
:102460004103052B02D83738C0B27047A0F1610391
:10247000052B94BF57383038F6E7000070B5044696
:102480001546084603220C4900F076FE014688B93D
:1024900007346E1C15F91100FFF7E0FF024616F92C
:1024A00011000131FFF7DAFF102940EA021004F8A9
:1024B000010FEFD170BD00BF14C500082DE9F04F2A
:1024C000ADF53F7D4168074601222AA805F0AEF927
:1024D000064600287BD1824681461125DFF80C8113
:1024E000DFF80CB101AB4FF4805241462AA805F049
:1024F000EDFA044600286AD1019AB2F5805F66D8E9
:10250000002A69D0019A9442ECD2282D0FD008DC21
:10251000132D2DD01E2D39D0112D13D00134A4B27E
:10252000F0E7322D2DD0372D2FD02D2DF6D13B6851
:10253000121B08EB040138461B692D259847BDF88E
:102540000440EBE7121B022A09D9594608EB0400A4
:1025500000F012FE18B902342825A4B2DEE718F8FC
:1025600004303A2B33D00A2B1CBFA1461325D5E7E4
:1025700018F804300A2B2AD03A2B04BFA246322581
:10258000CCE718F80430202BC8D0264618F80430C1
:102590000A2B1AD1AAEB090208EB090102A811259E
:1025A0004F2A28BF4F22FEF71BFAA21B08EB060199
:1025B00016A84F2A28BF4F22FEF712FA3B6816AA28
:1025C00002A9DB6838469847A8E71E25A6E7002041
:1025D0000DF53F7DBDE8F08F3B68384602491B6929
:1025E00098470120F4E700BFA4C50008044F00206D
:1025F00018C5000830B500F11805044685B0284616
:1026000000F0E8FB2046FFF759FF60B12946684615
:1026100000F03EFC102204F108016846FEF7B4FC0D
:10262000B0FA80F0400905B030BD000070B5044636
:102630000025EEB2304600F0DBFC48B92046FFF73B
:102640003DFF58B104F58034207C80F0010006E0A5
:1026500000213046013500F0E3FC08B9002070BDD0
:10266000022000F05DFDE4E7F0B5C9B008F0E8FA3B
:1026700002F098F918B90025284649B0F0BD69461E
:102680002A4805F0E9FA00284BD1294C204605F0EC
:1026900013FB284805F010FB274805F00DFB2146E9
:1026A000224805F085FB0028E5D1702001F086FA6C
:1026B000064610B1214B44600360336830469B6886
:1026C0009847054600282ED01A4F1948394605F07C
:1026D0006FFB05460028CED1194801F06FFA044679
:1026E00038B1184B4760036000F58033C0E90255EC
:1026F0001D74236820469B689847054628B10E49FB
:102700000C4805F055FB0028B5D1336830465B68AE
:1027100098471CB1236820465B68984702F02AF965
:10272000AAE70025FAE70446EFE700BF1CC500084A
:102730002CC5000843C5000859C500088CC6000810
:1027400014000100A8C600082DE9F04FD34A8DB04F
:10275000D1F800A003685244D0F804E0D04E1A44E7
:10276000D1F81C90DFF8B0C3DFF8B0B3D0E9023481
:10277000634003EA0E03634013444A6801920EEB80
:102780007363019CC74A2244C468224484688EEA69
:1027900004051D40654015448A68029203EB3555D7
:1027A000029CC14A2244846822448EEA03042C40DD
:1027B00084EA0E041444CA6805EBF4340392164408
:1027C00083EA0502224076445A4032440E69049658
:1027D00004EBB222049FB54E3E441E4485EA040336
:1027E00013406B4033444E69059602EB7363059FBB
:1027F000AF4E3E442E4484EA02051D4065403544F8
:102800008E69069603EB3555069FAA4E3E44264434
:1028100082EA03042C4054403444A74E4E4405EB56
:10282000F434164483EA050222405A4032440E6AC8
:10283000079604EBB222079FA04E3E441E4485EA51
:10284000040313406B4033444E6A089602EB7363F3
:10285000089F9B4ED1F838803E442E4484EA0205FE
:102860001D40654035448E6AA6F5244703EB355577
:1028700009964F3F274482EA03042C4054403C44CD
:10288000CF6A0A9705EBF4340A9E8E4F37440E6BDD
:10289000174483EA05020B9622405A403A448A4F75
:1028A000374404EBB222019E1F4485EA040313401F
:1028B0006B403B444F6BBC4402EB7363AC4484EA13
:1028C00002051D4065406544DFF854C2C44403EB73
:1028D0003555A44482EA03042C4054406444D1F8A2
:1028E0003CC07A4905EBF4346144114483EA0502A3
:1028F00022405A400A44764904EBB2223144069EF3
:10290000194484EA02032B4063400B44714902EBF3
:10291000F36331440A9E0D4482EA03012140514091
:1029200029446D4D03EBF1513544059E254483EA5E
:10293000010414405C402C44684D01EBB444554400
:10294000154481EA04021A404A402A44644D04EBCB
:1029500032323544099E1D4484EA02030B40634031
:102960002B44604D02EBF3633544049E0D4482EA30
:1029700003012140514029445B4D03EBF151654473
:10298000254483EA010414405C402C44574D01EB7C
:10299000B4443544089E154481EA04021A404A4072
:1029A0002A44534D04EB32323544039E1D4484EADD
:1029B00002030B4063402B444E4D02EBF36345444E
:1029C0000D4482EA03012140514029444A4D03EB62
:1029D000F1513544079E254483EA010414405C40CC
:1029E0002C44464D01EBB4443544029E154481EA23
:1029F00004021A404A402A44414D04EB32323D441D
:102A00001D4484EA02030B4063402B443D4D02EB1E
:102A1000F36335440B9E0D4482EA0301B344059EE3
:102A20002140934451402944374D03EBF1514D442B
:102A30002C4483EA010515405D40254401EBB54572
:102A400081EA050404EA03024A405A44A6F5B82B79
:102A5000079E05EB3232ABF2BE6B54409B442B4BCE
:102A60005C4433440A9E02EB34740B4485EA020151
:102A700061401944264B334404EB7151019E2B44B1
:102A800082EA04054D401D44224B434401EB354589
:102A90001A4484EA01036B40134443E078A46AD7E4
:102AA000EECEBDC156B7C7E8DB702024AF0F7CF572
:102AB0002AC68747134630A8019546FDD8988069F5
:102AC000AFF7448BBED75C892211906B2108B449C3
:102AD00062251EF640B340C0515A5E26AAC7B6E929
:102AE0005D102FD65314440281E6A1D8C8FBD3E76A
:102AF000E6CDE121D60737C3870DD5F4ED145A454D
:102B000005E9E3A9F8A3EFFCD9026F6781F67187A5
:102B100022619D6D0C38E5FD937198FD8A4C2A8DDC
:102B20008E4379A6904A324405EB7323049E2244D7
:102B300081EA05045C4014448C4A324403EB34744B
:102B4000099E0A4485EA030161401144884A4A44C7
:102B500004EB7151154483EA04024A402A44854D2E
:102B6000354401EB3242039E2B4484EA0105554073
:102B70001D44814B3B4402EB7525234481EA02044A
:102B80006C401C447D4B534405EB3474194482EA79
:102B9000050363400B447A49314404EB7353069EAA
:102BA0000A4485EA040159401144764A324403EB51
:102BB0003141089E2A4484EA03054D401544724A77
:102BC000324401EB75250B9E144483EA01026A40EE
:102BD00022446E4C344405EB3272029E234481EA57
:102BE000050454401C446A4B634402EB74540B4488
:102BF00085EA020161401944664B334404EB3141DC
:102C0000059E1D4482EA04034B402B44624D01EBB8
:102C100073235544154463EA04024A402A445F4D35
:102C200003EBB2624D44254462EA01045C402C444B
:102C30005B4D02EBB45445440D4464EA030151403A
:102C40002944584D04EB714135440B9E1D4461EA03
:102C5000020363402B44544D01EBF3233544039EA0
:102C6000154463EA04024A402A44504D03EBB26221
:102C70003544254462EA01045C402C44099DA5F5D5
:102C8000801602EBB4544A4DA6F683360E4464EA2D
:102C9000030151403144019E04EB71413544079ECC
:102CA0001D4461EA020363402B44424D01EBF323D0
:102CB0003544069E154463EA04024A402A443E4DC8
:102CC00003EBB2626544254462EA01045C402C4493
:102CD0003A4D02EBB4543544049E0D4464EA0301BA
:102CE00051402944364D04EB71413D442B4461EA87
:102CF000020565401D44334B01EBF52533440A9E24
:102D00001A4465EA04034B4013442F4A05EBB363AE
:102D10003244029E144463EA01026A4022442B4C6E
:102D200003EBB2523444089E0C4462EA0501594058
:102D30002144274C02EB71413444254461EA0304E9
:102D400054402C4405682B4403600EEB010303EB55
:102D5000F423436083681944C3681A448160C260E5
:102D60000DB0BDE8F08F00BF44EABEA4A9CFDE4B92
:102D7000604BBBF670BCBFBEC67E9B28FA27A1EA9B
:102D80008530EFD4051D880439D0D4D9E599DBE628
:102D9000F87CA21F6556ACC4442229F497FF2A434D
:102DA000A72394AB39A093FCC3595B6592CC0C8FDD
:102DB000D15D84854F7EA86FE0E62CFE144301A30D
:102DC000A111084E827E53F735F23ABDBBD2D72A05
:102DD00091D386EB094B036003F18833436003F121
:102DE0002943A3F59613A3F68B638360A3F188337D
:102DF000C3600023C0E90433704700BF0123456767
:102E00002DE9F8431446026905460E46E300C2F375
:102E1000C50800F118079B18036122BF43690133FD
:102E2000436112F4FC7F436903EB5473436114D094
:102E3000C8F1400907EB08004C4504D22246BDE822
:102E4000F843FDF73FBD403C4A464E44FDF73AFD8E
:102E5000444439462846FFF777FCA04606EB0409B0
:102E6000B8F13F0FA9EB080106D824F03F0104F0A8
:102E70003F0238463144E2E740223846FDF722FD62
:102E800039462846A8F14008FFF75EFCE8E7000055
:102E900070B50B6901F1180506460C46C3F3C5036E
:102EA000EA18501C8022EA54C3F13F02072A1FD8B7
:102EB000002100F077F929462046FFF745FC38222B
:102EC0000021284600F06EF9236929462046236533
:102ED00063696365FFF738FC214610223046FDF731
:102EE000F1FC204658220021BDE8704000F05AB99C
:102EF000C3F137020021E5E70F4B70B51B7805469B
:102F00000C460133DBB2012B10D80C484FF47A7316
:102F10000168A2FB033222460E6A2946B04784426A
:102F200004D1074B002201201A7070BD4FF4FA70D3
:102F300006F0E2FE0020F8E718230020C069002018
:102F4000345F0020002307B5024601210DF1070080
:102F50008DF80730FFF7D0FF20B19DF8070003B0D0
:102F60005DF804FB4FF0FF30F9E700000A4604214A
:102F700008B5FFF7C1FF013808BD000030B40546B1
:102F800004480A4603682946DC69034BA44630BC62
:102F9000604700BFC0690020A086010070B50A4EDE
:102FA00000250A4C07F01AFB3080206833888342E2
:102FB00008D907F00FFB236805440133B5F5003F3E
:102FC0002360F2D370BD00BF2C5F0020305F002073
:102FD00007F0E6BB00F1006000F5003000687047C4
:102FE00000F10060920000F5003007F055BB0000D2
:102FF000054B1A68054B1B889B1A834202D9104463
:1030000007F0E8BA00207047305F00202C5F0020F6
:10301000024B1B68184407F0E3BA00BF305F002082
:10302000024B1B68184407F0EFBA00BF305F002066
:103030000020704700F1FF5000F58F10D0F8000815
:1030400070470000064991F8243033B1002308226C
:10305000086A81F82430FFF7C3BF0120704700BF22
:10306000045F0020014B1868704700BF0010005C2F
:10307000194B1A4A70B51D68431E0420C5F30B0492
:103080000B442D0C013808D19942084610D3052471
:10309000134A013C15D1401A70BD1688A6420ED1C4
:1030A00052680846013A9842F1D212F9014F1CB910
:1030B0002C2200F8012BEAE700F8014BF3E7083275
:1030C000E0E71688AE4204D198423CBF967800F8FB
:1030D000016B0432DDE700BF0010005C1C23002000
:1030E000BCC60008022804D1054B4FF400129A61B7
:1030F00070470128FCD1024B4FF40022F7E700BFD4
:1031000000100258022803D1044B20229A61704714
:103110000128FCD1014B0822F8E700BF001002583B
:10312000022805D1064A536983F020035361704792
:103130000128FCD1024A536983F00803F6E700BF77
:103140000010025870B504464FF47A7604B970BD89
:10315000412C254628BF412506FB05F0641B06F0DF
:10316000CBFDF3E7002310B5934200D110BDCC5C3A
:10317000C4540133F8E70000013810B510F9013FDD
:103180003BB191F900409C4203D11AB10131013A9F
:10319000F4E71AB191F90020981A10BD1046FCE727
:1031A000FFF7FEBF02440346934200D1704703F885
:1031B000011BF9E72DE9F8431F4D144607468846E1
:1031C00095F8242022B9DFF870906CB9012009E04D
:1031D0002B6A03EB82038342F5D0FFF733FF00280D
:1031E000F1D10020BDE8F88395F824302BB92022D6
:1031F000FF2148462F62FFF7D5FF95F8240041468E
:10320000C0F1080205EB8000A24228BF2246D6B2D8
:103210009200FFF7A7FF95F82430A41B17441E4423
:103220009044E4B2F6B2082E85F82460CDD1FFF7C1
:1032300009FF0028C9D1D4E7045F0020024B1A78A7
:10324000024B1A70704700BF345F00201823002023
:1032500038B5114D114C284605F090FF21462846FF
:1032600005F0B8FF24684FF47A70D4F89020D2F8B3
:10327000043843F00203C2F80438FFF763FF08493B
:10328000204606F0B5F8D4F89020D2F8043823F0A0
:103290000203C2F8043838BDC069002038CE0008E7
:1032A00040CE0008704700002DE9F04771B6464B4C
:1032B00001201D68454BB3F8008000231A461946CB
:1032C00005F044F90446802007F00AFB074670B376
:1032D0006CB33F4EADB24FF0800A7369284643F09D
:1032E000C0637361D6F8143143F0C063C6F814317B
:1032F00007F070F905EB080205FB00F34FF03D0CF9
:1033000000FB02FE4FF4D0609E4513D8204605F026
:103310005DF9384607F020FB2D4B5A6942F0C06238
:103320005A61D3F8142142F0C062C3F8142161B687
:10333000BDE8F08731694A012CD4D6F81011490153
:1033400028D4226803F1006191602168CF60216870
:10335000C1F804A021680860D4F80090D9F80010E2
:1033600041F00101C9F80010D4F80090D9F800101C
:1033700021F01E01C9F80010D4F80090D9F800100F
:10338000CA07FBD494F80C90803362680CFA09F1F8
:103390001160B9E70F4B9A6A42F400729A629A6A16
:1033A00042F400429A6261B60026012007F0F8F963
:1033B000464503D3002007F0F3F9A7E7A819013623
:1033C00007F022F9F4E700BF305F00202C5F0020F7
:1033D0000020005200ED00E02DE9F3470D460446C1
:1033E00000219046284640F27912FFF7DBFE234683
:1033F00020220021284604F1220702F0FBF8231DB9
:10340000022220212846C02602F0F4F8631D032280
:103410002221284602F0EEF8A31D0322252128468A
:1034200002F0E8F804F1080310222821284602F0EF
:10343000E1F804F1100308223821284602F0DAF8F6
:1034400004F1110308224021284602F0D3F804F1C8
:10345000120308224821284602F0CCF804F1140394
:1034600020225021284602F0C5F804F1180340221A
:103470007021284602F0BEF804F120030822B02192
:10348000284602F0B7F804F121030822B8212846A3
:1034900002F0B0F8314608363B460822284601378C
:1034A00002F0A8F8B6F5A07FF4D194F83230314696
:1034B00004F1330A00268DF8073008220DF10703C6
:1034C000284602F097F89DF807304FEAC6099E4259
:1034D00009F5A47720D394F83231502B28BF50231C
:1034E0008DF80730B8F1000F08D1394609F24F17AF
:1034F0000DF107030722284602F07CF8002604F2AB
:1035000033149DF8073007EBC6019E420DD30731F7
:10351000C80802B0BDE8F0870AEB06030822394666
:103520002846013602F066F8CDE7A319082228469E
:10353000013602F05FF8E4E738B50C460021054695
:10354000034621602046C4F80310202202F052F8FE
:103550002B1D20460222202102F04CF86B1D204634
:103560000322222102F046F8AB1D2046032225212A
:1035700002F040F8204605F108031022282102F04D
:1035800039F8072038BD0000F7B5057F04460E4620
:103590002DB1838A122B02D9012003B0F0BD002384
:1035A000072220460096194601F0F0FE731C012206
:1035B000072100932046002301F0E8FED5B9B31C93
:1035C00005220821204600932B460D2501F0DEFE42
:1035D000B378102BE0D83746BB1BB278934210D398
:1035E0000735237FA08AED08B3B9A8422CBF00207D
:1035F0000120D2E7A38A0825DB00083BDB08B37073
:10360000E6E7FB1C294608222046009300230835E4
:10361000013701F0BBFEDFE7401B18BF0120BCE70C
:10362000F7B5047F05460E462CB1838ACA2B02D912
:10363000012003B0F0BD0023082228460096194659
:1036400001F0A4FEDCB9731C08222846009323462F
:103650001024114601F09AFE7378C82BE8D8012394
:103660005F1C7278013B934210D307342B7FA88AEA
:10367000E408B3B9A0422CBF00200120D9E7AB8AEF
:103680000824DB00083BDB087370E5E7F3192146EB
:10369000082228460093002301F078FE08343B46B8
:1036A000DEE7001B18BF0120C3E70000F7B50E4698
:1036B00004460021154630468122FFF773FD23465C
:1036C00008220021304601F095FF63787F2B28BF48
:1036D0007F238DF807309DB90F270DF107030722CF
:1036E0000821304601F086FF002502349DF807309E
:1036F00007EBC5019D4205D30731C80803B0F0BDF3
:103700000827F1E7631908223046013501F072FFFE
:10371000ECE70000F7B50E4605460021144630469A
:10372000CE22FFF73FFD2B4628220021304601F034
:1037300061FF2B7AC82B28BFC8238DF807308CB9BE
:1037400030240DF1070308222821304601F052FFF2
:103750002F467B1B9DF80720934205D3E01DC00830
:1037600003B0F0BD2824F3E707F10903214608223E
:1037700030460834013701F03DFFEAE7F7B5047F32
:1037800005460E4634B1838AB3F5827F02D9012003
:1037900003B0F0BD0123102200212846009601F05D
:1037A000F5FDDCB9B31C09221021284600932346FD
:1037B000192401F0EBFD7388B3F5807FE7D8374615
:1037C000BB1B7288934210D307342A7FAB8AE4086C
:1037D000B2B99C4294BF00200120D9E7AB8A1024E3
:1037E000DB00103BDB087380E5E73B1D2146082228
:1037F0002846009300230834013701F0C7FDDFE7B6
:10380000E01A18BF0120C3E730B50A44084D9142C1
:1038100000D130BD11F8013B5840082340F30004AB
:10382000013B2C4013F0FF0384EA5000F6D1EEE791
:103830002083B8EDF7B5354A6B46106851686A4683
:1038400003C3082332493348FDF7FEFA044610B398
:103850000369B3F5F01F52D8428BB2F5B06F50D167
:103860002D4A024402F110018B424CD3103B2949EE
:1038700000209D1AFFF7C8FF04F1180106462A46EA
:103880000020FFF7C1FFA3689E4202D1E36898427F
:1038900031D00D2500E00A25204A6B46106851689A
:1038A0006A4603C308231E491A48FDF7CDFA0446A9
:1038B00010B30369B3F5F01F1ED8B0F86620B2F557
:1038C000B06F19D1144A024402F15C018B4213D348
:1038D0005C3B104900209E1AFFF796FF04F164013B
:1038E000074632460020FFF78FFFA3689F4203D1AF
:1038F000E368984200D10025284603B0F0BD0B25AF
:10390000CAE70C25C8E71025C6E700BF9CC500081C
:10391000DCFF1D00000002080800FEF7A5C5000836
:1039200090FF1D0010B50B68044608469B68216097
:103930009847204610BD000010B504460068036893
:10394000DB689847204610BD10B5037C044613B9C8
:10395000006807F001F8204610BD00000023BFF307
:103960005B8FC360BFF35B8FBFF35B8F8360BFF37D
:103970005B8F7047BFF35B8F0068BFF35B8F70474F
:1039800070B505460C30FFF7F5FF044605F1080653
:103990003046FFF7EFFFA04206D96D683046FFF7CB
:1039A000E9FF2544281A70BD3046FFF7E3FF201ACF
:1039B000F9E7000070B505464068A0B105F10C06B6
:1039C00005F10800FFF7D6FF04463046FFF7D2FFA7
:1039D000844204F1FF34304694BF6D680025FFF740
:1039E000C9FF2C44201A70BD38B50C460546FFF7B8
:1039F000C7FFA04210D305F10800FFF7BBFF6B68BB
:103A000004440120BFF35B8FB4FBF3F203FB1244C9
:103A1000AC60BFF35B8F38BD0020FCE72DE9F041BF
:103A2000144607460D46FFF7C5FF844228BF0446EB
:103A3000D4B1B84658F80C6B4046FFF79BFF0644DC
:103A400040462E607E68FFF795FF331A9C4203D8EC
:103A500001206C60BDE8F081A61B6B603B683044C0
:103A6000AB60E8600220F5E72046F3E738B50C4686
:103A70000546FFF79FFFA04210D305F10C00FFF7AA
:103A800079FF6B6804440120BFF35B8FB4FBF3F252
:103A900003FB1244EC60BFF35B8F38BD0020FCE7F2
:103AA0002DE9F04385B088460746002569466C46F7
:103AB000FFF7B4FF06B204EBC606B44207D12946AD
:103AC0003846FFF7D3FF284605B0BDE8F083D4F8A9
:103AD000049008EB050154F8080B4A464D44FFF7E3
:103AE00041FBEAE7F8B505460C300F46FFF742FF09
:103AF00005F1080604463046FFF73CFFA042304679
:103B000088BF6C68FFF736FF201A386020B12C6838
:103B10003046FFF72FFF2044F8BD000073B5144670
:103B200006460D46FFF72CFF844228BF0446DCB151
:103B300001A93046FFF7D6FF019B3BB93268C5E9C2
:103B40000233C5E90024012002B070BD9C42286008
:103B500038BF0194019B9C426B60F4D93268E41A2F
:103B60000220AA60EC60EFE72046EDE72DE9FF4177
:103B70000F4669466C46FFF7D1FF05B2002604EBFD
:103B8000C505AC4203D1304604B0BDE8F081D4F89D
:103B90000480B81954F8081B42464644FFF7E2FA7D
:103BA000EFE7000038B50546FFF7E0FF04460146A1
:103BB0002846FFF719FF204638BD00000121884242
:103BC00038BF084606F0C4BE08B106F0C5BE70474F
:103BD00070470000036800221B68184700F58050FA
:103BE00090F869047047000000F5805090F8620476
:103BF0007047000000F5805090F96804704700009D
:103C0000302383F3118800F58052D2F8AC34D2F817
:103C1000A8145818D2F8A4341844D2F88C34184494
:103C2000D2F89C341844D2F898341844002383F313
:103C30001188704700F58050C0F864140120704767
:103C40002DE9F74F0C4600F580511F46054691F8C7
:103C500062349046BDF830909BB1D1F8883401337E
:103C6000C1F888342368980006D4237B082B0DD92B
:103C7000627B0AB10F2B09D9D1F88C340133C1F81A
:103C80008C344FF0FF3003B0BDE8F08F302383F366
:103C90001188AB6BD3F8C420920215D5D1F89034BB
:103CA0000133C1F89034D1F89434002B40F088806F
:103CB00042463B4621462846CDF8009000F04CFF96
:103CC000002383F31188DEE722684FF0480AD3F817
:103CD000C460002A2B6BC6F30446B4BF42F0804296
:103CE00092041AFB063ACAF8002023685B004FEAE8
:103CF000066344BF42F00052CAF80020227B43EA28
:103D00000243CAF80430627B42B143F44013CAF85C
:103D10000430D1F8C0340133C1F8C03405EB461388
:103D20004FEA461B03F58353197F62F34511197758
:103D3000207B00F061FF0330801007D0636801280A
:103D4000CAF808301CBFA368CAF80C300122AB6B5C
:103D500005EB4611B24001F58351C3F8D02006F1BE
:103D60008303083104F10C0205EB4313C3E9008718
:103D7000234653F8040B934241F8040BF9D11B88F6
:103D800041F278020B8005EB0B039E5003F5805344
:103D900009F0030293F87C1042F0100221F01F0199
:103DA0000A4383F87C20002383F3118842463B4674
:103DB00021462846CDF8009000F0CEFE012062E7B3
:103DC00000207DE738B500F580540D46606DFFF7A3
:103DD000F1FD1F2809D920222946606DFFF760FEFA
:103DE000A0F120035842584138BD0020FCE70000F4
:103DF00008B5302383F3118800F58050406DFFF73C
:103E0000ADFD002383F3118808BD0000002202608D
:103E100082814260826070470022002310B5C0E9B1
:103E20000023002304460C3020F8043CFFF7EEFF8B
:103E3000204610BD2DE9F0479A4688B007468846CF
:103E40009146302383F3118807F580546846FFF7C5
:103E5000E3FF606DFFF794FD1F282ED920226946ED
:103E6000606DFFF79FFE202827D194F8623423B3BA
:103E700003AD444605AB2E46083403CE9E4244F8BB
:103E8000080C44F8041C3546F5D130682060B3882E
:103E9000A380DDE90023C9E90023BDF80830AAF8B2
:103EA0000030002383F3118853464A464146384682
:103EB00008B0BDE8F04700F009BE002080F311888B
:103EC00008B0BDE8F08700002DE9F84F06468846A7
:103ED0001822002104303546FFF764F9264B06F519
:103EE000825445F8403B2F4638462037FFF794FF71
:103EF000A742F9D106F580544FF4805306F5A35933
:103F00004FF0000A25640025676506F5835709F11F
:103F100008094FF0000B0837E564C4E911350123A7
:103F200084F8503084F858303846203747E90AABD7
:103F3000FFF76CFF47F8105CB945F5D184F8688449
:103F4000A4F86A54A4F86C54A4F86E5484F870541D
:103F5000A4F87254A4F87454A4F8765484F87854ED
:103F6000B8F1000F02D0054800F09CFD044B30462C
:103F7000B363BDE8F88F00BFD4C60008AEC5000823
:103F800000A00040044B10B5197804464A1C1A7072
:103F9000FFF79AFF204610BD3C5F00202DE9F0435B
:103FA000002959D02D4B2E4D994294BF11230A233D
:103FB000B5FBF1F4013BDBB2581C5FFA83FEB4FBA6
:103FC000F0F700FB174080BB7C1EB4F5806F2AD24F
:103FD000C3EBC3004FF47A73C41CE610C4F3C704E8
:103FE00006F10109AEEB040806FB03365FFA88FC14
:103FF00059FA88F8B6FBF8F6B6F5617F1ADCB3B269
:10400000601C5CFA80F07843B5FBF0F58D4223D15B
:104010000CF1FF3107291FD8012013805780107140
:10402000547182F806C0BDE8F083BEF1020F13D0D0
:10403000013BC1E7441EE610C4F3C704AEEB040025
:1040400006F1010E06FB03335FFA80FC5EFA80F096
:10405000B3FBF0F39BB2D3E70020E4E73F420F004D
:1040600000B4C40430B506200C4B0D4D013811D0FE
:104070001C786C438C420ED159780120518099787C
:104080005171D9789171197911715B7903EB8303BF
:104090005B00138030BD0633E8E700BF10C700089F
:1040A00040420F0038B540F27772836B154CC3F86D
:1040B000BC200722836BC3F8C8202268816B930061
:1040C00043F4C023C1F8A03002F1805302F16C0127
:1040D000856B03F52C53EA3289009B00226041F086
:1040E000E061094A8362C5F8C01003F5D87103F591
:1040F0006A7301639342436302D9044800F0D2FC1F
:1041000038BD00BF385F0020FCB50040C2C50008C4
:104110002DE9F04300F5805589B00446884695F8AE
:1041200068341746012B00F2AB809B4A52F82310EB
:1041300009B942F823009948C4F81C800178C9B92C
:10414000302383F31188964BD3F8EC2042F480722D
:10415000C3F8EC20D3F8942042F48072C3F8942082
:10416000D3F8942022F48072C3F8942001230370C2
:1041700081F3118895F861647EB9302383F3118847
:104180000321132004F026FD0321152004F022FD55
:10419000012385F8613486F31188302383F3118875
:1041A000A26B936923F01003936100F081FC8146B8
:1041B000A36B9E6916F0080659D19A6942F0010274
:1041C0009A6100F075FC8146A36B9A69D0075CD5B3
:1041D0009A6942F002029A610023A26B536583F34D
:1041E0001188686DFFF7BAFB202200216846FEF7B0
:1041F000D9FF02A8FFF70AFE04F583536A460DF1C2
:10420000180E334494460833BCE80300F44543F8E1
:10421000080C43F8041C6246F4D1DCF80000203698
:104220001860B6F5806F9CF804201A71DCD1002369
:1042300004F5A352414620460A3285F8603485F8D9
:104240006334FFF7ABFE064630BBA26B936923F0E5
:104250000103936100F02CFC0546A36B9B69D90711
:104260000ED500F025FC401BFA28F6D908E000F036
:104270001FFCA0EB0900FA289AD9002383F31188C8
:104280000026304609B0BDE8F08300F011FCA0EB39
:104290000900FA2898D9F0E795F86F3495F86E146C
:1042A000013BC5F87C840139A26B1B0243EA4163E0
:1042B00095F8701401390B43B5F86C14013943EAD1
:1042C0000143D361AFB304F5A352394620461232FD
:1042D000FFF7C8FE88B9A26B936923F001039361CD
:1042E00000F0E6FB0546A36B9B69DA07C8D500F032
:1042F000DFFB401BFA28F6D9C2E7B5F8743495F80D
:104300007714013BC5F880740139A26B1B0443EAA2
:10431000012395F8761401390B4395F87814013987
:1043200043EA011343F40003D3604FF42062A36B0C
:104330009A64A36B00272046C3F8BC70FFF7B2FE57
:1043400085F869746FF04042A36B1A65154AA36B38
:104350005A654FF00222A36B9A654FF0FF32A36BB0
:10436000C3F8E0200322A36BDA65A26B936923F004
:104370000103936100F09CFB0746A36B9B69DB077D
:1043800003D4012385F862347BE700F091FBC01B66
:10439000FA28F2D974E700BF405F0020355F0020A3
:1043A00000440258550200022DE9F04F00F5A557D0
:1043B0008BB00546904699464FF0000B41F2780AC3
:1043C0001037AB6BD3F8D83023FA0BF3DC0753D597
:1043D00005EB4B114FEA4B1251440B7918074BD4A4
:1043E00005F58056D6F894340133C6F89434C7E9FD
:1043F00000890B79990605EB020148BFD6F8C43451
:10440000514444BF0133C6F8C4340B7943F0080368
:104410000B71DB0725D596F8633413B305F5835488
:1044200002A80192FFF7F8FC0834019A05AB144486
:1044300004F1080C2068083454F8041C1A4664453A
:1044400003C21346F6D1206802A910602846A2884C
:104450009A800123ADF810302B68CDE902899B6B5F
:104460009847D6F8B834D6F864040133C6F8B8349F
:1044700010B103681B6998470BF1010BBBF1200FCA
:104480009FD10BB0BDE8F08F2DE9F04F8A468FB079
:10449000044600F00FFB81460191BAF1000F76D17E
:1044A000A36BD3F8A02012F4FE0F03D100200FB0AD
:1044B000BDE8F08FD3F8A420970141BF04F58051E7
:1044C000D1F8A8240132C1F8A824D3F8A4205606B4
:1044D000ECD0D3F8A450A66AC5F30525482302AF53
:1044E0004FF0000803FB05663846FFF78FFC326883
:1044F00051004ABF22F06043C2F38A4343F00043B5
:10450000920048BF43F080430293736813F4001392
:104510001BBF012304F580528DF815308DF815303E
:104520001EBFD2F8C8340133C2F8C834B6F806B09A
:104530000BF00F0B8DF814B0584600F05DFB5FFADE
:1045400088F3834242D3A36BBAF1000F49D1C3F879
:10455000A85006A809ADFFF75FFCCDF8189097E8C2
:104560000F0007C52B802046019B06A90793002357
:10457000ADF82030236804F580549B6B984798B3BE
:10458000D4F8A0340133C4F8A03401208FE7BAF185
:10459000010F8BD1A36BD3F8B02012F4FE0F85D09E
:1045A000D3F8B420950141BF04F58051D1F8A82477
:1045B0000132C1F8A824D3F8B42050063FF476AFF6
:1045C000D3F8B450E66AC5F3052587E703F138024E
:1045D000334408F101080DEB02011B7A01F82C3C71
:1045E000AAE7C3F8B850B4E7D4F8A4340133C4F848
:1045F000A434CAE72DE9F04105460E4600F5805483
:10460000012731462846FFF73FFF60B9D4F8B83498
:10461000D4F864040133C4F8B83438B10368BDE891
:10462000F0411B69184784F86374EAE7BDE8F0813C
:10463000836BF0B51A6C12F47F0F2BD01B6C00F556
:10464000805441F278054FF0010CC4F8BC340023CB
:10465000471900EB43125E012A44117911F0020F51
:1046600015D0490713D4B959866B0CFA01F1D6F865
:10467000CCE011EA0E0F0AD0C6F8D410117941F03F
:1046800004011171D4F89C240132C4F89C24013334
:10469000202BDED1F0BD000038B5264D0346264C58
:1046A000286808B343B3236D98050FD54FF4007302
:1046B000236500F0FFF902460B4652EA030102D0DF
:1046C000013A63F100032868FFF76EFE1A4A2B686F
:1046D000116D890128D54FF0007103F580531165E4
:1046E000012283F869241FE0012323651023236539
:1046F0004FF48053236538BD236DD90702D4236D51
:104700005A0704D5052300212365FFF773FF236DA6
:10471000DB0602D4236D5C0606D5074B502201212F
:104720001A652868FFF766FF2868BDE83840FFF77C
:104730007FBF00BF405F002000A0004008B53023CD
:1047400083F31188FFF774FF002383F3118808BDFA
:10475000836BD3F8C00010F07C5005D0D3F8C400B0
:1047600080F40010C0F340507047000008B53023BB
:1047700083F3118800F58050406DFFF701F90023A5
:1047800083F3118840090CBF0120184608BD0000C2
:1047900000F5805393F8692462B1816B8A6922F035
:1047A00001028A61D3F8AC240132C3F8AC240022A0
:1047B00083F86924704700002DE9F743302181F325
:1047C0001188002500F5835141F2780E4FF0010861
:1047D00000F5805C00EB45147444267977071CD4FF
:1047E000F6061AD58E6908FA06F9866BD6F8CC70EB
:1047F00019EA070F11D04F6801970F689742019F80
:104800009F410AD2C6F8D490267946F00406267154
:10481000DCF898440134CCF8984401352031202D3F
:10482000D8D1002383F3118803B0BDE8F0830000E2
:10483000F8B51E4600230F46054613701446FFF7D1
:1048400095FF80F0010038701EB12846FFF780FF09
:104850002070F8BD2DE9F04F85B00E468046174612
:10486000019391F8009092F800A0DDE90EB3029355
:1048700000F020F9337805460C462BB93B781BB97C
:10488000002005B0BDE8F08F2A4623464046FFF7DA
:1048900093FFFFF753FFFFF77BFF019B3A4631463B
:1048A000FFF7C6FF337823B1B9F1000F01D0012023
:1048B000E7E73B7813B1BAF1000FF8D108F5805360
:1048C00003935D45029B9C41DAD2039BD3F86404B9
:1048D0000028D5D00368ABEB05011B689847019B06
:1048E0003A4631464046FFF7A3FF337813B1B9F19A
:1048F000000FDCD13B7813B1BAF1000FD7D100F033
:10490000D9F805460C46DCE708B50020FFF7C4FEE1
:10491000BDE8084003F008BC08B50120FFF7BCFE65
:10492000BDE8084003F000BC036800211B6818477D
:10493000043008B505F054F8012008BD10B521B1C8
:104940000368BDE810405B681847043005F01CF8A8
:10495000012010BD043005F039B80000044B10B53B
:10496000044640F8043B04F0CDFF204610BD00BFD4
:1049700038C7000810B5084C01220849002002F091
:1049800031FF23783BB1064804F030FB044804F0C3
:104990006BFB0023237010BD445F0020E4C50008BA
:1049A000286400202DE9F041234C244D236DBBB930
:1049B00001224FF4004104F1500006F08DF9236DFF
:1049C0001B686BB901224FF4805104F1500006F0CE
:1049D00083F9236D1B681BB900202870BDE8F081A6
:1049E0002B780BB1FFF7C6FF0324154F4FF00008DB
:1049F000114E13493046C7F8048004F027FB3046B7
:104A000004F056F938B1013C0B4804F02DFB14F0CA
:104A1000FF04EED1E0E70B4901220B4802F0E2FE71
:104A2000014618B1044804F0E1FAECE7074800F049
:104A30000FF80120D1E700BF28640020445F002068
:104A400034230020E4C50008485F0020E6C50008C4
:104A50000FB4002004B0704700B59BB0EFF309819C
:104A600068226846FEF77EFBEFF30583014B9B6BE4
:104A7000FEE700BF00ED00E008B5FFF7EDFF000026
:104A800000B59BB0EFF3098168226846FEF76AFB28
:104A9000EFF30583014B5B6BFEE700BF00ED00E029
:104AA000FEE700000FB408B5029805F0A5F8FEE790
:104AB00005F0B0BF05F092BF0139C9B202299EBF0F
:104AC00000EBC1000023C0E9013370472DE9F84332
:104AD0001E461B88054688465B0705D400F10C047A
:104AE00000F12409A14502D10120BDE8F88354F862
:104AF000083C13B954F8043C6BB12B6828465B6B37
:104B000098473388C1B254F8047C43F0040342460A
:104B100054F8080CB8470834E4E7000073B56C4655
:104B200084E80600014600224E68551C66B98E686E
:104B300056B900EBC200021D94E8030082E80300AE
:104B400001201D7002B070BD032D2A4601F108013D
:104B5000EAD10020F6E700002DE9F04F89B00446C5
:104B60008B4600F10C05BDF8488000F124090027B0
:104B700008F0040AA94503D1012009B0BDE8F08F6F
:104B800055F8083C13B955F8043C63B1BAF1000F6D
:104B90000BD1236820465B6B98474346C1B25A4607
:104BA00055E90206B0470835E4E717BB00220023A9
:104BB0000BF1080CADF80870CDE900235B4603AAA1
:104BC0001868083353F8041C1746634503C73A4670
:104BD000F6D1186838609B88BB80FFF76BFF042311
:104BE000ADF808302368CDE900019B6B694620468B
:104BF00098470127D7E700000E2809D8DFE800F022
:104C00001515151515151515150A0C0E101214008D
:104C1000402070470C2070471020704714207047C8
:104C20001820704720207047302070470E2809D880
:104C3000DFE800F01515151515151515150A0C0EDC
:104C400010121400402070470C207047102070474D
:104C5000142070471820704720207047302070477C
:104C60002DE9F043456A35B94162BDE8F083CEF8DD
:104C700000100B60F9E74E68AE462B4626F0604CFC
:104C8000C6F38A47C6F3807817EA260738BF674617
:104C90005C6894EA060F24F060420CD5002C1EDA02
:104CA000920CBA4201D0BA420FD99D42DFD10D60B9
:104CB000DAE71346ECE7944505D104F08049C4F3E4
:104CC0008074444507D19445EFD31A689E46002A64
:104CD000EFD11960C9E7B9F1000FF6D0E5E7BA42A4
:104CE000F3D0E0E72DE9F047089E01F007054FF407
:104CF0007F4900EBD1014FEAD6082A4406F00706A7
:104D0000954201D1BDE8F08705F0070C06F0070ACF
:104D1000501BEC08D44567460C5D38BF574604FA73
:104D20000CF4C7F1080724FA0AF4874228BF0746A3
:104D300008EBD60029FA07FC13F800E03D443E4496
:104D40005FFA8CFC8EEA04044CFA0AFC04EA0C04B8
:104D50008EEA040E03F800E0D2E7000080EA0120AA
:104D6000082341F2210201B2013B4000002980B238
:104D7000B8BF504013F0FF03F5D1704738B50C466B
:104D80008D18A54200D138BD14F8011BFFF7E6FFCE
:104D9000F7E700000346406848B1026899895A6005
:104DA0005A89013292B291425A8138BF9A81704732
:104DB00070B588B0044620220D4668460021FEF7F3
:104DC000F1F920460495FFF7E5FF024660B16B4616
:104DD000054608AE1C46083503CCB44245F8080C1D
:104DE00045F8041C2346F5D1104608B070BD0000FC
:104DF0002DE9F843078C0446072F1ED900254FF6EE
:104E0000FF73D0E90298C5F12006A5F1200029FA28
:104E100005F1083508FA06F628FA00F03143014397
:104E20001846C9B2FFF79AFF402D0346EBD13A4628
:104E3000E169BDE8F843FFF7A1BF4FF6FF70BDE899
:104E4000F883000010B54B6823B9CA8A63F30902DE
:104E5000CA8210BD04691A681C600361C38A013BE1
:104E6000C3824A60EFE700002DE9F84F1C46CB8A69
:104E700080460F46C3F309009146052803462ED00D
:104E800000221A319DB296B2042D11D8B44203F11A
:104E9000010308D80444FB8AC4F30904012064F325
:104EA0000903FB8219E019F802500132CD54E9E7F9
:104EB000B442EFD9A0F1050A1C237D68BAFBF3F2D6
:104EC00003FB12AA1FFA8AF295BB4046FFF762FF66
:104ED000054630B978606FF00200BDE8F88F002613
:104EE000E8E70022026078604FF0000AB44242D93D
:104EF000D31C901B2B4425E001311D4689B22B6841
:104F0000002BF9D1631F03441C20B3FBF0F30133E2
:104F10009BB29942E8D2BAF1000FE5D14046FFF7C3
:104F200039FF38B1C0F800A0524628600546DBE7DB
:104F30000121E4E7C5F800A0CDE719F80610013615
:104F400003F8011F10FA86F11FFA86FB89B21B29AC
:104F500003D85C45F1D85E46C8E75C45FBD94046BE
:104F6000FFF718FF28B1C0F800A00022286005460E
:104F7000F1E72860AFE7FB8A1C448CE72DE9F74F87
:104F80001C465B69074688460092002B00F0B580FE
:104F9000238C2BB1E269002A00F0AF80072B4AD89E
:104FA00007F10C00FFF7F6FE054620B96FF002008E
:104FB00003B0BDE8F08F14220021FEF7F3F8228C35
:104FC000E16905F10800FEF7CDF8208C013080B2D0
:104FD00008280DD90C2824D9102824D9142824D91C
:104FE000182824D9202824D9312834BF0E200F2096
:104FF000FFF71CFE0138294680B220840130287456
:1050000038466369228C1B782A4403F01F0363F03F
:105010003F03137248F000436B60FFF721FE01204D
:10502000C6E70920E4E70A20E2E70B20E0E70C20CE
:10503000DEE70D20DCE702330722C18A9BB206338C
:10504000B3FBF2F3828A9BB2521A92B29342ADD86A
:10505000002500F10C034FF08009AA462E4601936B
:10506000238CB34201D128B2A2E70198FFF792FE48
:10507000834600289AD014220021FEF793F856B9EF
:10508000009B0222ABF808300BF1080C218CB142D6
:1050900003D890B20BE00022F6E7E169895D0136A2
:1050A0000CF802100132B6B290B20728EED10130EE
:1050B000228C013580B2B24208BF4FF04009FFF7A1
:1050C000B5FD6269013812781BFA80F1013002F0F7
:1050D0001F0242EA4A128AF0010A49EA02024FF02C
:1050E00000090A7248F000428BF810005946384611
:1050F000CBF80420FFF7B4FDB2E76FF0010057E7EB
:10510000F8B515460E463022002104461F46FEF72C
:1051100049F8B5F5001F069B04F1100034BF6A0979
:105120004FF6FF72636095B2079B06EB4212A760D1
:10513000A362E661964206D100230360A582E38262
:105140002383E360F8BD066030462036F2E70000B6
:1051500003781BB94BB2002BC8BF01707047000029
:1051600000787047F8B50C46C969074609B9238C21
:10517000B3BB257E1F2D33D83B7823BB228C072A57
:105180002BD8268A032E2BD84FF6FF703602FFF756
:10519000F5FD20F0010046EA05664FF6FF72400477
:1051A000400C46EA4025234629463846FFF7E6FEEE
:1051B000002807DD626913780133DBB21F2B88BF3B
:1051C00000231370F8BD228A2D06204645EA0225E9
:1051D0001D43FFF70DFE0246E5E76FF00300F1E720
:1051E0006FF00100EEE7000070B58AB00446164685
:1051F0000021282268461D46FDF7D4FFBDF838304F
:1052000069462046ADF810300F9B05939DF840305D
:105210008DF81830119B0793BDF84830CDE9026531
:10522000ADF82030FFF79EFF0AB070BD2DE9F041C8
:10523000D36905460C4616460BB9138C5BBB377E0B
:105240001F2F28D895F80080B8F1000F26D03046DF
:10525000FFF7CEFD337821020246284641EAC331EA
:10526000338A41EA080141EA076141EA03413346D2
:1052700041F08001FFF782FE00280ADD3378012B20
:1052800007D1726913780133DBB21F2B88BF00236B
:105290001370BDE8F0816FF00100FAE76FF00300D2
:1052A000F7E70000F0B58BB004460D461746002125
:1052B000282268461E46FDF775FF9DF84C302946AA
:1052C00020465A1E534253416A468DF800309DF8DD
:1052D0004030ADF81030119B05939DF848308DF8A3
:1052E0001830149B0793BDF85430CDE90276ADF821
:1052F0002030FFF79BFF0BB0F0BD0000406A00B10B
:1053000004307047436A1A68426202691A60036196
:10531000C38A013BC38270472DE9F843D0F820903F
:1053200014461E46184F49464FF0000809B9BDE81B
:10533000F883D1E90252651B66EB0202AF4278EBBB
:1053400002021ED2036A8B420DD1FFF77BFD036A76
:105350001B68036203690B60C38A0161013B016A38
:10536000C3828946E2E7FFF76DFD0B68C9F800309C
:1053700003690B60C38A0161013BC382D9F8001045
:10538000D4E789460968D1E780841E002DE9F04FF3
:105390008BB00D4614468246DDF8508004930028F9
:1053A00000F01881B8F1000F00F01481531E3F2B5C
:1053B00000F21081012A03D1049B002B40F00A81E6
:1053C000BAF814B00023B5EBCB0F4FEACB07CDE909
:1053D000083303D300200BB0BDE8F08F2B199F4298
:1053E000DAF80C3034BF7F1B2746039338BFFFB277
:1053F0001BB9DAF81030002B75D0272D49D8C5F12C
:10540000280600232946B742009308ABDAF80800C3
:105410002CBFF6B23E46A7EB0609354432465FFA8A
:1054200089F9FFF75FFC0BF1005B2821ABF1050B5D
:105430004FEACB0B039B13B1B9F1000F2CD1DAF873
:10544000100040B1B9F1000F05D008AB4A46691A07
:105450000096FFF747FC38B2002FBBD067070AD091
:105460000AAB624203EBD40102F0070211F8083CD8
:10547000134101F8083C082C3CD9102C40F2B580AF
:10548000202C40F2AD80049B002B00F09780082375
:1054900033E0B9460026C6E75B46E02B28BFE02391
:1054A00006930B44AB42059315D95A1B0398691A0E
:1054B0000096914508AB00F1040034BF4A46D2B2D1
:1054C0000792FFF70FFC079A16441544A9EB020256
:1054D000F6B25FFA82F9069B0599ABEB030B039BCF
:1054E0001B680393A6E700933A4608AB2946DAF80F
:1054F0000800AEE7049B93B10123B4EBC30F62D065
:10550000082C11D89DF82030621E23FA02F2D6072B
:1055100005D54FF0FF32A24013438DF820309DF89F
:10552000203088F8003056E7102C11D8BDF8203014
:10553000621E23FA02F2D50705D54FF0FF32A240D2
:105540001343ADF82030BDF82030A8F8003042E712
:10555000202C0ED8089A631E22FA03F3D90704D52B
:105560004FF0FF33A34013430893089BC8F8003063
:1055700031E7402C31D0631EC4F12106A4F1210291
:10558000DDE9085125FA03F301FA06F621FA02F2E1
:1055900033431343DB0711D50123A4F12002C4F1E7
:1055A000200603FA02F223FA06F6A34032435B42D6
:1055B00062EB42022B430A43CDE90832DDE90823BE
:1055C000C8E9002307E7082CA9D0102CBBD0202C59
:1055D000F4D1CAE76FF00100FDE66FF00800FAE6CB
:1055E000049B002BC1D0042387E7049B002BAAD087
:1055F000022382E7012A30B5144638BF012285B064
:105600000025402A28BF4022012CCDE902550ED8A2
:105610001B788DF8083004AB544203EBD20504F03C
:10562000070415F8083CA34005F8083C06E0082CE0
:105630000CD81B788DF808305307ECD10346009145
:1056400002A80021FFF74EFB05B030BD102C03D897
:105650001B88ADF80830EFE7202C95BF1B68D3E915
:1056600000450293CDE90245E6E7000010B5CB689E
:105670001BB98B600B618B8210BD04691A681C60BA
:105680000361C38A013BC382CA60F0E703064CBFD3
:10569000C0F3C0300220704708B50246FFF7F6FF9E
:1056A000022806D15306C2F30F2001D100F00300F7
:1056B00008BDC2F30740FBE72DE9F04FD1F80080A9
:1056C00097B004460D464046CDE90623FFF7DEFFBE
:1056D0000228039014BFC8F306260026B8F1000F75
:1056E00080F2FA8118F0C04A40F0F681097B002967
:1056F00000F0F281039B022B03D02378B34240F0E9
:10570000EE8108F07F03404629440493FFF7C4FF6D
:10571000049B002291F803B04FEA8349039B059054
:1057200049EA0349002349EA46695FEADB1649EA88
:105730000009CDE90C2379D0049B02460CA9204630
:105740000093039B6768B847002800F0CB81276A65
:10575000002F59D1494604F10C00FFF729FB0746F9
:10576000002800F0F08027626B7B0BF01F090A9382
:10577000BB7E0B93FB7DC3F38403A3EB0900A9EB72
:1057800003031FFA80FC0028B8BF0CF1200C08901E
:10579000B8BF0FFA8CF01FFA83FCB8BF0890002B3B
:1057A000B8BF0CF1200C0993D7E90212B8BF0FFA69
:1057B0008CF3D7F804C0B8BF099351EA020E00F089
:1057C000AA81069B4FF0000E591A079B63EB020259
:1057D000B04B8B427EEB0203C0F09D81DDE90A30C5
:1057E000834240F08B81002E36D0089B012B00F3C2
:1057F0009281BCF1000F40F08E81A74888427CEB7B
:105800000202C0F0848130E03B699945ACD03F682A
:10581000002FF9D1494604F10C00FFF7C9FA0746F9
:10582000002800F09080236A3B609CE7276A77B9E4
:10583000049B0CA9059A20460093039B6568A84722
:10584000C0F57F40F43000B217B0BDE8F08F3B697F
:10585000994589D03F68EAE78F4B8B4276EB02028D
:1058600003D26A7BBB7E9A4239D1C8F30468002E0A
:1058700037D01BF0400F34D0069B1422002111A812
:10588000BB60079BFB60FDF78DFC069B0EA92046C5
:105890000E93079B8DF851900F932B1D8DF852801E
:1058A00010932B7B013BDBB2ADF84C30059BADF880
:1058B0004E30039B8DF85030049B8DF8533094F894
:1058C0002C3083F001038DF85430A3689847FB7D9A
:1058D000C3F38403013303F01F039B02FB82002008
:1058E000B2E7FB7DCBF34012B2EBD31F40F0FD805B
:1058F000C3F384034B4540F0FB802B7B002E51D03B
:10590000032B40F2F880069BAE1D394604F10C00D3
:10591000BB603246079BFB60FB8A6FF30903FB8287
:105920002B7B033BDBB2FFF79FFA00280EDA3946E8
:105930002046FFF787FAFB7DC3F38403013303F0AE
:105940001F039B02FB826FF002007DE7AB88DDE95D
:105950000C843B834FF6FF73CAF12000AAF12002AA
:1059600028FA0AF10AF1080A04FA00F024FA02F20D
:10597000014318461143C9B2FFF7F0F9BAF1400FDD
:105980000346E9D1B88231462A7B033AD2B2FFF707
:10599000F5F9FB7DB882DA43C2F3C01262F3C71394
:1059A000FB759CE7013B5FEA9B1BDBB20ED12E1D12
:1059B000394604F10C003246FFF756FA0028B6DBF0
:1059C0002A7B3146B88A013AD2B2E0E7FA8AC2F3BA
:1059D0000902042A62D86BB1E91C07F11B0011F817
:1059E00001CF013600F802C00132F6B2052A01D01B
:1059F0009E42F4D3069A9E4205F104010E9238BFEE
:105A00000436079A2CBF002655FA86F60F9207F146
:105A10001B0210927A6812961192FA8A8DF85190B0
:105A2000C2F309028DF852801344ADF84C30059B47
:105A3000ADF84E30039B8DF85030049B8DF85330F9
:105A400094F82C3083F001038DF854300023B88A89
:105A50007B602A7B013AFFF791F93B8BB882834246
:105A600003D1A3680EA92046984720460EA9FFF748
:105A7000FDFDFB7DBA8AC3F38403013303F01F03EA
:105A80009B02FB823B8B9A4214BF6FF010000020F8
:105A9000DAE600BF80841E0040420F0078680028CC
:105AA000A8D0052101E01C3130460668002EFAD14D
:105AB000521A05F1030CD11C014402EB0A005FFAF3
:105AC0008AF61B2896D89E4294D21CF8010F0AF140
:105AD000010A01F8010FF0E76FF00900B4E66FF07A
